:100000000C9434000C9446000C9446000C9446006A
:100010000C9446000C9446000C9446000C94460048
:100020000C9446000C9446000C9446000C94460038
:100030000C9446000C9446000C9446000C94460028
:100040000C9492000C9446000C9446000C944600CC
:100050000C9446000C9446000C9446000C94460008
:100060000C9446000C94460011241FBECFEFD8E03C
:10007000DEBFCDBF21E0A0E0B1E001C01D92A531FF
:10008000B207E1F70E9486000C943F010C94000037
:1000900084E392E1909302018093010110920701A1
:1000A00080E092E090930401809303018EE791E059
:1000B000909306018093050187ED93EAACE6B2E4E4
:1000C0008093080190930901A0930A01B0930B015A
:1000D0004BE050E060E070E081E091E00C9427019B
:1000E0004BE050E060E070E081E091E00E94170199
:1000F000809107018093000180910101909102019C
:100100008433924111F00C94480008950E94DC0061
:100110000E94700080E090E0892B19F00E9400009E
:10012000FDCFFFCF1F920F920FB60F9211242F9386
:100130003F938F939F93AF93BF9380910D019091C5
:100140000E01A0910F01B091100130910C0123E03C
:10015000230F2D3720F40196A11DB11D05C026E8FF
:10016000230F0296A11DB11D20930C0180930D0158
:1001700090930E01A0930F01B09310018091110193
:1001800090911201A0911301B09114010196A11D4B
:10019000B11D8093110190931201A0931301B093AC
:1001A0001401BF91AF919F918F913F912F910F902B
:1001B0000FBE0F901F901895789484B5826084BD0F
:1001C00084B5816084BD85B5826085BD85B581605B
:1001D00085BDEEE6F0E0808181608083E1E8F0E0BB
:1001E0001082808182608083808181608083E0E8EA
:1001F000F0E0808181608083E1EBF0E080818460C9
:100200008083E0EBF0E0808181608083EAE7F0E0CA
:10021000808184608083808182608083808181602E
:1002200080838081806880831092C1000895DC0102
:10023000CB01FC01F999FECF06C0F2BDE1BDF89AF1
:10024000319600B40D9241505040B8F70895DC014A
:10025000CB0103C02D910E94320141505040D0F794
:100260000895262FF999FECF1FBA92BD81BD20BDFA
:100270000FB6F894FA9AF99A0FBE01960895F89479
:02028000FFCFAE
:00000001FF
