:100000000C94B2000C94DA000C94DA000C94E9061B
:100010000C940D070C9431070C94DA000C94DA0060
:100020000C94DA000C94DA000C94DA000C94DA00E8
:100030000C94DA000C94DA000C94DA000C94DA00D8
:100040000C94A7010C94DA000C9473030C94A50390
:100050000C94DA000C94DA000C94DA000C94DA00B8
:100060000C94DA000C94DA0000C2010001001100C7
:1000700011000C0000E100000A002500250021000D
:10008000009600001900390039003600127A00008D
:100090001F004600460044008070000022004D0012
:1000A0004D004A00004B00003600750075007200DC
:1000B000403800004A009C009C0099008025000008
:1000C0007200EC00EC00E900C0120000E900DA0167
:1000D000DA01D70160090000D701B603B603B30304
:1000E000B0040000B3036E076E076B0758020000F0
:1000F0006E07DC0EDC0ED80E2C010000DC0EC11DDC
:10010000C11DBE1D0000000800020100000304071D
:1001100000000000000000000102040810204080E0
:100120000102040810200102040810200404040441
:100130000404040402020202020203030303030391
:100140000000000023002600290000000000250018
:1001500028002B0000000000240027002A000B01CB
:10016000D5031E0111241FBECFEFD8E0DEBFCDBFE7
:1001700011E0A0E0B1E0E8EBF7E102C005900D92DC
:10018000AE3AB107D9F722E0AEEAB1E001C01D9264
:10019000A63CB207E1F711E0C2E6D1E004C0229725
:1001A000FE010E949309CE35D107C9F70E949A013A
:1001B0000C94CF0B0C94000080EB91E00E94A504FE
:1001C00086EB91E00E94A5048CEB91E00C94A808CA
:1001D00026E040E855E260E070E081EE91E00E94A8
:1001E000110340E056E960E070E08CEB91E00E9482
:1001F000D70765E070E086EB91E00E94D6046EE1DF
:1002000070E080EB91E00E94D60466E071E081EE40
:1002100091E00C94930420E043E062E08CEB91E0E9
:100220000E94A7076DE871E086EB91E00E9413053C
:100230006DE871E080EB91E00C9413050C94DC0008
:10024000CF9369E371E081EE91E00E94930481EE27
:1002500091E00E944702C82F682F81EE91E00E9432
:1002600066046C2F86EB91E00E946D05CD3049F459
:100270006DE871E081EE91E00E94930481E080934B
:10028000AF01CF910895CF93DF938091AF01882381
:10029000D1F06CE471E081EE91E00E94640466EBC1
:1002A00071E081EE91E00E94810466EB71E08CEBDD
:1002B00091E00E9456046DE871E086EB91E00E94A7
:1002C00029051092AF01D1E08CEB91E00E94BB05B3
:1002D000892B09F160E671E081EE91E00E949304C0
:1002E0008CEB91E00E948005C82F682F80EB91E095
:1002F0000E946D05CD3041F76BE771E081EE91E032
:100300000E94640460EB71E081EE91E00E94810440
:10031000D093AE01D9CF8091AE01882341F06DE832
:1003200071E080EB91E00E9429051092AE01DF910F
:10033000CF9108950E94F1010E94E800CBE5D2E040
:100340000E9443012097E1F30E945B02F9CF1F92C4
:100350000F920FB60F9211242F933F938F939F9379
:10036000AF93BF938091D9019091DA01A091DB0105
:10037000B091DC013091D80123E0230F2D3720F418
:100380000196A11DB11D05C026E8230F0296A11DEF
:10039000B11D2093D8018093D9019093DA01A093E5
:1003A000DB01B093DC018091DD019091DE01A09131
:1003B000DF01B091E0010196A11DB11D8093DD0127
:1003C0009093DE01A093DF01B093E001BF91AF9164
:1003D0009F918F913F912F910F900FBE0F901F9083
:1003E0001895789484B5826084BD84B5816084BD9D
:1003F00085B5826085BD85B5816085BDEEE6F0E09E
:10040000808181608083E1E8F0E0108280818260F9
:100410008083808181608083E0E8F0E0808181607A
:100420008083E1EBF0E0808184608083E0EBF0E0AA
:10043000808181608083EAE7F0E08081846080834E
:1004400080818260808380818160808380818068F8
:1004500080831092C1000895FC01818D228D90E06F
:10046000805C9F4F821B910960E470E00E94470905
:100470000895FC01918D828D981731F0828DE80FDF
:10048000F11D858D90E008958FEF9FEF0895FC0199
:10049000918D828D981761F0828DDF01A80FB11DBB
:1004A0005D968C91928D9F5F9F73928F90E00895DF
:1004B0008FEF9FEF08958BEC93E0892B49F080E25A
:1004C00091E0892B29F00E94CB0381110C9420012B
:1004D0000895FC01848DDF01A80FB11DA35ABF4F01
:1004E0002C91848D90E001968F739927848FA68933
:1004F000B7892C93A089B1898C9180648C93938D5A
:10050000848D981306C00288F389E02D80818F7D49
:1005100080830895CF93DF93EC01888D8823C9F001
:10052000EA89FB89808185FD05C0A889B9898C91FC
:1005300086FD0FC00FB607FCF5CF808185FFF2CF97
:10054000A889B9898C9185FFEDCFCE010E946902FF
:10055000E7CFDF91CF910895CF92DF92FF920F9373
:100560001F93CF93DF931F92CDB7DEB76C01DC01F1
:100570005B969C915B975C968C915C97981307C0F7
:100580005096ED91FC915197808185FD32C0F60126
:10059000038D10E00F5F1F4F0F731127F02EF60130
:1005A000848DF81211C00FB607FCF9CFD601509612
:1005B000ED91FC915197808185FFF1CFC601698350
:1005C0000E9469026981EBCF838DE80FF11DE35A28
:1005D000FF4F6083D6015B960C935B975296ED912B
:1005E000FC91539780818062808381E058968C9340
:1005F0000DC0D6015696ED91FC91579760835096A9
:10060000ED91FC91519780818064808381E090E03E
:100610000F90DF91CF911F910F91FF90DF90CF90BE
:100620000895BF92CF92DF92EF92FF92CF93DF9324
:10063000EC016A017B01B22EE889F98982E08083AE
:10064000411581EE580761057105A1F060E079E080
:100650008DE390E0A70196010E945B0921503109CA
:10066000410951095695479537952795211580E100
:10067000380798F0E889F989108260E874E88EE11B
:1006800090E0A70196010E945B09215031094109C0
:1006900051095695479537952795EC85FD8530830B
:1006A000EE85FF852083188EEC89FD89B082EA896A
:1006B000FB89808180618083EA89FB8980818860F1
:1006C0008083EA89FB89808180688083EA89FB894D
:1006D00080818F7D8083DF91CF91FF90EF90DF90BD
:1006E000CF90BF9008951F920F920FB60F921124D2
:1006F0002F938F939F93EF93FF93E091F101F091EC
:10070000F2018081E091F701F091F80182FD12C0C1
:1007100090818091FA018F5F8F732091FB01821786
:1007200051F0E091FA01F0E0EF51FE4F958F809388
:10073000FA0101C08081FF91EF919F918F912F91DC
:100740000F900FBE0F901F9018951F920F920FB62B
:100750000F9211242F933F934F935F936F937F9347
:100760008F939F93AF93BF93EF93FF9381EE91E0AD
:100770000E946902FF91EF91BF91AF919F918F917C
:100780007F916F915F914F913F912F910F900FBE8D
:100790000F901F90189581EE91E00E942C0221E0AD
:1007A000892B09F420E0822F08951092E401109221
:1007B000E30188EE93E0A0E0B0E08093E501909340
:1007C000E601A093E701B093E80182E991E09093FC
:1007D000E2018093E10185EC90E09093EE0180933B
:1007E000ED0184EC90E09093F0018093EF0180ECB8
:1007F00090E09093F2018093F10181EC90E090936E
:10080000F4018093F30182EC90E09093F6018093E1
:10081000F50186EC90E09093F8018093F701109237
:10082000FA011092FB011092FC011092FD01089553
:10083000CF92DF92EF92FF920F931F93CF93DF93AC
:100840006C017A01EB01E60EF71E00E010E0CE1518
:10085000DF0561F06991D601ED91FC910190F08185
:10086000E02DC6010995080F191FF1CFC801DF91CE
:10087000CF911F910F91FF90EF90DF90CF9008954F
:100880006115710581F0DB010D900020E9F7AD01E4
:1008900041505109461B570BDC01ED91FC91028040
:1008A000F381E02D099480E090E00895DC01ED9162
:1008B000FC91DB0114964D915C9115976D917C91A3
:1008C0000280F381E02D09940C944004DC01ED9149
:1008D000FC910190F081E02D09940F931F93CF9329
:1008E000DF93EC016DE00E9466048C016AE0CE01AA
:1008F0000E946604800F911FDF91CF911F910F918D
:1009000008950F931F93CF93DF93EC010E94560439
:100910008C01CE010E946D04800F911FDF91CF9159
:100920001F910F9108950F931F93CF93DF93EC01C5
:100930000E9440048C01CE010E946D04800F911F23
:10094000DF91CF911F910F910895FC0180819181DA
:100950000C942F0ACF93DF93EC0188819981009743
:1009600011F00E942F0A198218821D821C821B829C
:100970001A82DF91CF9108950F931F93CF93DF9346
:10098000EC018B016F5F7F4F888199810E94BE0AC5
:10099000009731F0998388831B830A8381E001C02B
:1009A00080E0DF91CF911F910F910895CF93DF9356
:1009B000EC0188819981892B29F08A819B81861796
:1009C000970760F4CE010E94BC04882341F08C811B
:1009D0009D81892B19F4E881F981108281E0DF91F2
:1009E000CF910895EF92FF920F931F93CF93DF93D0
:1009F000EC017B018A01BA010E94D604811104C076
:100A0000CE010E94AA0407C01D830C83B701888110
:100A100099810E94910BCE01DF91CF911F910F918F
:100A2000FF90EF900895FC011182108213821282D0
:100A3000158214826115710559F0FB0101900020A7
:100A4000E9F7AF0141505109461B570B0C94F204D2
:100A50000895CF93DF93EC016115710561F0FB01FF
:100A600001900020E9F7AF0141505109461B570B97
:100A70000E94F20402C00E94AA04CE01DF91CF912D
:100A80000895EF92FF920F931F93CF93DF93EC01A2
:100A90007B010C811D816115710511F480E016C088
:100AA0004115510591F0040F151FB8010E94D6049D
:100AB0008823A1F3288139818C819D81B701820F20
:100AC000931F0E94910B1D830C8381E0DF91CF91D6
:100AD0001F910F91FF90EF900895CF93DF9300D077
:100AE000CDB7DEB769831A8241E050E0BE016F5F87
:100AF0007F4F0E9441050F900F90DF91CF91089595
:100B00002091C0023091C10228173907B9F49091A1
:100B10007E0280917F02981789F0E0917E02F0E0DA
:100B2000E058FD4F808120917E0230E02F5F3F4FE3
:100B30002F73332720937E0290E008958FEF9FEF6D
:100B400008952091C0023091C1022817390781F41D
:100B500090917E0280917F02981751F0E0917E0281
:100B6000F0E0E058FD4F8081992787FD909508952A
:100B70008FEF9FEF08952091C0023091C102281796
:100B8000390771F480917F0220917E0290E0805CB1
:100B90009F4F821B910960E470E00E94470908950D
:100BA00080E090E008952091C0023091C1022817A2
:100BB000390739F48FB7F89410927F0210927E02B1
:100BC0008FBF0895DC015196ED91FC9152972081E1
:100BD00050968C91809582238083089520E0019720
:100BE0002FEF8F3F9207D9F708952091C0023091DF
:100BF000C1022817390789F0FC01238D2E7F238F2E
:100C00002FB7F89410927F0210927E029093C10247
:100C10008093C0022FBF81E0089580E00895EF9295
:100C2000FF920F931F93CF93DF93EC018B8DEE8593
:100C3000FF859D8581FF04C08081892329F445C0FB
:100C40008081892309F041C08B899C890E94EE052F
:100C500008E010E0EE24E394F12C8D899E890E9437
:100C6000EE05EE85FF8580819D85892311F0FE28A4
:100C700003C08E2D8095F822EE0C0150110969F702
:100C80008F89988D0E94EE058B8D81FDF094809167
:100C90007F0220917E0290E001968F73992730E0C9
:100CA0008217930779F0E0917F02F0E0E058FD4F62
:100CB000F08280917F0290E001968F739927809354
:100CC0007F0203C08B8D81608B8FDF91CF911F914D
:100CD0000F91FF90EF900895611102C00C94E2050E
:100CE000DC015196ED91FC915297208150968C91A8
:100CF000282B20830895DF92EF92FF920F931F938A
:100D0000CF93DF93EC01E62E898D9A8D892B39F4F0
:100D100081E090E09B838A8380E090E049C0DFB669
:100D2000F8946B8D66956170CE010E946C06898D7A
:100D30009A8D05960E94EE058B8D08E010E0FF2449
:100D4000F39481FF17C08F2D8E2121F0CE010E94D8
:100D5000E20504C061E0CE010E946C06898D9A8D87
:100D60000E94EE05FF0C0150110969F7CE010E94A7
:100D7000E20517C08F2D8E2129F061E0CE010E947F
:100D80006C0603C0CE010E94E205898D9A8D0E94F7
:100D9000EE05FF0C0150110969F761E0CE010E94D8
:100DA0006C06DFBE898D9A8D0E94EE0581E090E091
:100DB000DF91CF911F910F91FF90EF90DF900895F9
:100DC0008091C0029091C102009711F00C940F061F
:100DD00008951F920F920FB60F9211242F933F93F5
:100DE0004F935F936F937F938F939F93AF93BF9333
:100DF000EF93FF930E94E006FF91EF91BF91AF91B7
:100E00009F918F917F916F915F914F913F912F9122
:100E10000F900FBE0F901F9018951F920F920FB654
:100E20000F9211242F933F934F935F936F937F9370
:100E30008F939F93AF93BF93EF93FF930E94E0062E
:100E4000FF91EF91BF91AF919F918F917F916F91A2
:100E50005F914F913F912F910F900FBE0F901F9078
:100E600018951F920F920FB60F9211242F933F9354
:100E70004F935F936F937F938F939F93AF93BF93A2
:100E8000EF93FF930E94E006FF91EF91BF91AF9126
:100E90009F918F917F916F915F914F913F912F9192
:100EA0000F900FBE0F901F9018951F93CF93DF9355
:100EB000EC01162F61E0812F0E94D8086B8D66959A
:100EC000617081E06827812F0E941109812F90E0D5
:100ED000FC01E85EFE4FE491E88BFC01E45DFE4F0F
:100EE000E491F0E0EE0FFF1FE65BFE4F85919491D9
:100EF0009A8B898BDF91CF911F9108951F93CF9388
:100F0000DF93EC01162F60E0812F0E94D8088B8DB3
:100F100081FD04C061E0812F0E9411091C87812F8F
:100F200090E0FC01E85EFE4FE491ED87FC01E45D9A
:100F3000FE4FE491F0E0EE0FFF1FE05CFE4F859165
:100F400094919F878E87DF91CF911F910895FF9293
:100F50000F931F93CF93DF93EC01F62E522F1B823A
:100F60001A8208EE13E020E030E00C831D832E830C
:100F70003F8382EA91E0998388831C8A1B8A1E8AB8
:100F80001D8A188E1F8A1A8E198E8B8D8E7F50FBAC
:100F900081F98B8F642FCE010E9455076F2DCE01F2
:100FA000DF91CF911F910F91FF900C947E070F93CB
:100FB0001F93CF93DF93EC011A8E198E188E1F8A20
:100FC0001E8A1D8AA8E6B0E080E090E0FD01059150
:100FD000159125913491041715072607370709F055
:100FE00031C02CE0289FF001299FF00D1124E45915
:100FF000FF4F259134913C8B2B8B2CE0289FF001E7
:10100000299FF00D1124E259FF4F259134913E8B19
:101010002D8B2CE0289FF001299FF00D1124E05921
:10102000FF4F25913491388F2F8B2CE0289FF001B2
:10103000299FF00D1124EE58FF4F859194919A8FBE
:10104000898F08C001961C968D30910509F0BECF9E
:101050001C8A1B8A8F89988D892B09F443C08C8543
:101060008631E0F520916800883050F091E08E30B4
:1010700008F490E081E001C0880F9A95EAF701C07A
:1010800084E0822B809368002C85283038F02E3045
:1010900040F0263148F0E0E0F0E008C0EDE6F0E096
:1010A00005C0EBE6F0E002C0ECE6F0E0308128306D
:1010B00030F481E001C0880F2A95EAF70DC0822F35
:1010C00090E02E3010F4089701C00E9791E001C017
:1010D000990F8A95EAF7892F832B8083898D9A8DC2
:1010E0000E94EE05CE01DF91CF911F910F910C94DC
:1010F000F505FC014485463150F5483028F04E3066
:1011000030F4EBE6F0E005C0EDE6F0E002C0ECE61E
:10111000F0E05081483040F481E090E0042E01C0BE
:10112000880F0A94EAF710C0242F30E04E3018F4EC
:101130002850310902C02E50310981E090E0022E82
:1011400001C0880F0A94EAF780958523808308956B
:1011500022EA31E0FC01318320830C94790883304A
:1011600081F028F4813099F08230A1F00895873021
:10117000A9F08830B9F08430D1F4809180008F7D5F
:1011800003C0809180008F7780938000089584B59C
:101190008F7702C084B58F7D84BD08958091B000A3
:1011A0008F7703C08091B0008F7D8093B000089549
:1011B000CF93DF9390E0FC01E85EFE4F2491FC01A9
:1011C000E45DFE4F8491882349F190E0880F991FD8
:1011D000FC01EC5AFE4FA591B491865B9E4FFC0139
:1011E000C591D4919FB7611108C0F8948C91209556
:1011F00082238C93888182230AC0623051F4F89450
:101200008C91322F309583238C938881822B888315
:1012100004C0F8948C91822B8C939FBFDF91CF9167
:1012200008950F931F93CF93DF931F92CDB7DEB72F
:10123000282F30E0F901EC5FFE4F8491F901E85E60
:10124000FE4F1491F901E45DFE4F04910023C9F0B3
:10125000882321F069830E94AF086981E02FF0E0C4
:10126000EE0FFF1FE65BFE4FA591B4919FB7F89478
:101270008C91611103C01095812301C0812B8C9347
:101280009FBF0F90DF91CF911F910F91089597FB12
:10129000072E16F4009407D077FD09D00E947D092F
:1012A00007FC05D03EF4909581959F4F0895709569
:1012B00061957F4F0895A1E21A2EAA1BBB1BFD0169
:1012C0000DC0AA1FBB1FEE1FFF1FA217B307E40725
:1012D000F50720F0A21BB30BE40BF50B661F771F7D
:1012E000881F991F1A9469F760957095809590955D
:1012F0009B01AC01BD01CF010895AA1BBB1B51E1AD
:1013000007C0AA1FBB1FA617B70710F0A61BB70B75
:10131000881F991F5A95A9F780959095BC01CD011A
:101320000895EE0FFF1F0590F491E02D0994CF93DF
:10133000DF938230910510F482E090E0E091C402E6
:10134000F091C50220E030E0A0E0B0E0309739F144
:101350004081518148175907B8F04817590771F46F
:1013600082819381109729F013969C938E93129704
:101370002CC09093C5028093C40227C0211531056B
:1013800031F04217530718F0A901DB0101C0EF014A
:101390009A01BD01DF010280F381E02DD7CF211535
:1013A0003105F9F0281B390B2430310580F48A818E
:1013B0009B816115710521F0FB019383828304C039
:1013C0009093C5028093C402FE01329644C0FE0190
:1013D000E20FF31F819391932250310939832883BF
:1013E0003AC02091C2023091C302232B41F42091D4
:1013F0000201309103013093C3022093C202209175
:101400000001309101012115310541F42DB73EB79E
:101410004091040150910501241B350BE091C2025B
:10142000F091C302E217F307A0F42E1B3F0B28171D
:10143000390778F0AC014E5F5F4F2417350748F04D
:101440004E0F5F1F5093C3024093C202819391934A
:1014500002C0E0E0F0E0CF01DF91CF910895CF939B
:10146000DF93009709F487C0FC0132971382128240
:10147000C091C402D091C502209781F420813181AE
:10148000280F391F8091C2029091C30282179307DF
:1014900079F5F093C302E093C2026DC0DE0120E053
:1014A00030E0AE17BF0750F412964D915C91139740
:1014B0009D014115510509F1DA01F3CFB383A283F0
:1014C00040815181840F951F8A179B0771F48D917C
:1014D0009C911197840F951F029691838083129699
:1014E0008D919C911397938382832115310529F463
:1014F000F093C502E093C4023EC0D9011396FC9359
:10150000EE9312974D915D91A40FB51FEA17FB075B
:1015100079F480819181840F951F0296D9011196EB
:101520009C938E938281938113969C938E931297B2
:10153000E0E0F0E08A819B81009719F0FE01EC0168
:10154000F9CFCE01029628813981820F931F209115
:10155000C2023091C3022817390769F4309729F481
:101560001092C5021092C40202C013821282D0935C
:10157000C302C093C202DF91CF910895A0E0B0E012
:10158000E4ECFAE00C949C0BEC01CB01209719F4ED
:101590000E949709B8C0FE01E60FF71F9E01225076
:1015A0003109E217F30708F4ACC0D9010D911C9181
:1015B000119706171707B8F00530110508F49FC0FA
:1015C000A801445051094617570708F498C0025023
:1015D0001109061B170B019311936D937C93CF0197
:1015E0000E942F0A8CC05B01A01AB10A4E01800E26
:1015F000911EA091C402B091C502612C712C60E0D3
:1016000070E0109709F449C0A815B905C9F5ED9027
:10161000FC901197670142E0C40ED11CCA14DB0490
:1016200078F147018A189B08640142E0C40ED11C7E
:101630001296BC9012971396AC91B5E0CB16D104DC
:1016400040F0B282A38391828082D9018D939C93D2
:1016500009C00E5F1F4F0E0D1F1DF901118300837E
:10166000EB2DFA2F6115710531F0DB011396FC9318
:10167000EE93129744C0F093C502E093C4023FC0BA
:101680006D917C9111976616770608F43B01BD01B8
:1016900012960D90BC91A02DB4CF6091C2027091B2
:1016A000C30268157905E9F468167906D0F440910B
:1016B0000001509101014115510541F44DB75EB74C
:1016C0006091040170910501461B570BE417F50763
:1016D000C0F4F093C302E093C202F90191838083C6
:1016E0000EC00E9497097C01009759F0A801BE0125
:1016F0000E94880BCE010E942F0AC70104C0CE01B0
:1017000002C080E090E0CDB7DEB7EEE00C94B80BFD
:10171000FB01DC0102C001900D9241505040D8F70E
:101720000895FB01DC0101900D920020E1F708957E
:101730002F923F924F925F926F927F928F929F92E1
:10174000AF92BF92CF92DF92EF92FF920F931F93CF
:10175000CF93DF93CDB7DEB7CA1BDB0B0FB6F89480
:10176000DEBF0FBECDBF09942A88398848885F84C0
:101770006E847D848C849B84AA84B984C884DF8031
:10178000EE80FD800C811B81AA81B981CE0FD11D15
:101790000FB6F894DEBF0FBECDBFED01089511E086
:1017A000C2E6D1E004C0FE010E9493092296C4362D
:0817B000D107C9F7F894FFCF3F
:1017B8000000C60280002A2A2A2A2A2A2A2A2A2A35
:1017C8002A2054657374696E672041746C61732DA7
:1017D800536369656E746966696320455A4F20458D
:1017E800432053656E736F72002A2A2A207365722C
:1017F80069616C4576656E742A2A2A002A2A2A3E6F
:1018080020496E70757420737472696E673A20008F
:101818002D2D2D3E2073656E736F72206461746187
:1018280020617661696C61626C65002A2A2A3E2013
:1018380053656E736F7220646174613A2000000012
:101848000000AC0218042C02470239028A02000088
:0E18580000007B061804BB058005A105D30522
:00000001FF
