:100000000C94B2000C94DA000C94DA000C946306A1
:100010000C9487060C94AB060C94DA000C94DA006E
:100020000C94DA000C94DA000C94DA000C94DA00E8
:100030000C94DA000C94DA000C94DA000C94DA00D8
:100040000C9478010C94DA000C9444030C9476031D
:100050000C94DA000C94DA000C94DA000C94DA00B8
:100060000C94DA000C94DA0000C2010001001100C7
:1000700011000C0000E100000A002500250021000D
:10008000009600001900390039003600127A00008D
:100090001F004600460044008070000022004D0012
:1000A0004D004A00004B00003600750075007200DC
:1000B000403800004A009C009C0099008025000008
:1000C0007200EC00EC00E900C0120000E900DA0167
:1000D000DA01D70160090000D701B603B603B30304
:1000E000B0040000B3036E076E076B0758020000F0
:1000F0006E07DC0EDC0ED80E2C010000DC0EC11DDC
:10010000C11DBE1D0000000800020100000304071D
:1001100000000000000000000102040810204080E0
:100120000102040810200102040810200404040441
:100130000404040402020202020203030303030391
:100140000000000023002600290000000000250018
:1001500028002B0000000000240027002A000501D1
:10016000A603180111241FBECFEFD8E0DEBFCDBF1C
:1001700011E0A0E0B1E0ECEAF6E102C005900D92DA
:10018000A832B107D9F722E0A8E2B1E001C01D9280
:10019000A034B207E1F711E0C2E6D1E004C0229733
:1001A000FE010E940D09CE35D107C9F70E946B01EF
:1001B0000C94490B0C9400008AE291E00E941F0409
:1001C00080E391E00E941F0486E391E00C942208F2
:1001D00026E040E052EC61E070E08BE591E00E94A7
:1001E000E20240E056E960E070E086E391E00E94C0
:1001F000510765E070E080E391E00E9450046EE1F9
:1002000070E08AE291E00C94500420E043E062E068
:1002100086E391E00E94210766E071E080E391E0CF
:100220000E948D0466E071E08AE291E00C948D04F6
:100230000C94DC00CF938BE591E00E941802C82F4C
:10024000682F80E391E00E94E704CD3019F481E04B
:1002500080932901CF910895CF93DF938091290155
:10026000882371F060E371E086E391E00E9411045D
:1002700066E071E080E391E00E94A30410922901FE
:10028000D1E086E391E00E943505892B79F086E381
:1002900091E00E94FA04C82F682F8AE291E00E9440
:1002A000E704CD3071F7D0932801EBCF809128017E
:1002B000882371F06AE271E08BE591E00E941104FD
:1002C00066E071E08AE291E00E94A30410922801A6
:1002D000DF91CF9108950E94C2010E94E800CCE214
:1002E000D2E00E942C012097E1F30E942C02F9CF6A
:1002F0001F920F920FB60F9211242F933F938F935B
:100300009F93AF93BF938091530190915401A0911B
:100310005501B09156013091520123E0230F2D3742
:1003200020F40196A11DB11D05C026E8230F0296F9
:10033000A11DB11D2093520180935301909354014C
:10034000A0935501B09356018091570190915801A7
:10035000A0915901B0915A010196A11DB11D809340
:10036000570190935801A0935901B0935A01BF913E
:10037000AF919F918F913F912F910F900FBE0F9052
:100380001F901895789484B5826084BD84B581608F
:1003900084BD85B5826085BD85B5816085BDEEE68D
:1003A000F0E0808181608083E1E8F0E0108280816C
:1003B00082608083808181608083E0E8F0E08081DA
:1003C00081608083E1EBF0E0808184608083E0EBFA
:1003D000F0E0808181608083EAE7F0E080818460E2
:1003E000808380818260808380818160808380813E
:1003F000806880831092C1000895FC01818D228D58
:1004000090E0805C9F4F821B910960E470E00E9445
:10041000C1080895FC01918D828D981731F0828D6D
:10042000E80FF11D858D90E008958FEF9FEF0895FF
:10043000FC01918D828D981761F0828DDF01A80FEC
:10044000B11D5D968C91928D9F5F9F73928F90E00E
:1004500008958FEF9FEF08958CE993E0892B49F081
:100460008AE191E0892B29F00E949C0381110C9470
:100470001A010895FC01848DDF01A80FB11DA35A54
:10048000BF4F2C91848D90E001968F739927848FB4
:10049000A689B7892C93A089B1898C9180648C93AB
:1004A000938D848D981306C00288F389E02D808196
:1004B0008F7D80830895CF93DF93EC01888D88230F
:1004C000C9F0EA89FB89808185FD05C0A889B989C1
:1004D0008C9186FD0FC00FB607FCF5CF808185FF9C
:1004E000F2CFA889B9898C9185FFEDCFCE010E940A
:1004F0003A02E7CFDF91CF910895CF92DF92FF923A
:100500000F931F93CF93DF931F92CDB7DEB76C018C
:10051000DC015B969C915B975C968C915C97981341
:1005200007C05096ED91FC915197808185FD32C0B6
:10053000F601038D10E00F5F1F4F0F731127F02E90
:10054000F601848DF81211C00FB607FCF9CFD60161
:100550005096ED91FC915197808185FFF1CFC601B6
:1005600069830E943A026981EBCF838DE80FF11D08
:10057000E35AFF4F6083D6015B960C935B975296CC
:10058000ED91FC91539780818062808381E0589641
:100590008C930DC0D6015696ED91FC9157976083D0
:1005A0005096ED91FC91519780818064808381E029
:1005B00090E00F90DF91CF911F910F91FF90DF900E
:1005C000CF900895BF92CF92DF92EF92FF92CF9398
:1005D000DF93EC016A017B01B22EE889F98982E0A0
:1005E0008083411581EE580761057105A1F060E037
:1005F00079E08DE390E0A70196010E94D508215093
:100600003109410951095695479537952795211587
:1006100080E1380798F0E889F989108260E874E889
:100620008EE190E0A70196010E94D5082150310982
:10063000410951095695479537952795EC85FD85D4
:100640003083EE85FF852083188EEC89FD89B0828A
:10065000EA89FB89808180618083EA89FB898081C6
:1006600088608083EA89FB89808180688083EA8949
:10067000FB8980818F7D8083DF91CF91FF90EF9008
:10068000DF90CF90BF9008951F920F920FB60F92F8
:1006900011242F938F939F93EF93FF93E0916B011E
:1006A000F0916C018081E0917101F091720182FD05
:1006B00012C09081809174018F5F8F7320917501BA
:1006C000821751F0E0917401F0E0E55AFE4F958FEA
:1006D0008093740101C08081FF91EF919F918F9170
:1006E0002F910F900FBE0F901F9018951F920F9291
:1006F0000FB60F9211242F933F934F935F936F93F5
:100700007F938F939F93AF93BF93EF93FF938BE56B
:1007100091E00E943A02FF91EF91BF91AF919F91BA
:100720008F917F916F915F914F913F912F910F909A
:100730000FBE0F901F9018958BE591E00E94FD0170
:1007400021E0892B09F420E0822F089510925E01A8
:1007500010925D0188EE93E0A0E0B0E080935F012D
:1007600090936001A0936101B09362018BE091E0EE
:1007700090935C0180935B0185EC90E0909368011D
:100780008093670184EC90E090936A018093690103
:1007900080EC90E090936C0180936B0181EC90E091
:1007A00090936E0180936D0182EC90E090937001C4
:1007B00080936F0186EC90E09093720180937101B9
:1007C00010927401109275011092760110927701C7
:1007D0000895CF92DF92EF92FF920F931F93CF93E2
:1007E000DF936C017A01EB01E60EF71E00E010E0EA
:1007F000CE15DF0561F06991D601ED91FC91019074
:10080000F081E02DC6010995080F191FF1CFC8012D
:10081000DF91CF911F910F91FF90EF90DF90CF90DC
:100820000895DC01ED91FC91DB0114964D915C91F2
:1008300015976D917C910280F381E02D0994FC0164
:10084000808191810C94A909CF93DF93EC01888179
:100850009981009711F00E94A909198218821D82BE
:100860001C821B821A82DF91CF9108950F931F93F0
:10087000CF93DF93EC018B016F5F7F4F888199816C
:100880000E94380A009731F0998388831B830A837A
:1008900081E001C080E0DF91CF911F910F91089519
:1008A000CF93DF93EC0188819981892B29F08A818C
:1008B0009B818617970760F4CE010E943604882337
:1008C00041F08C819D81892B19F4E881F981108296
:1008D00081E0DF91CF910895EF92FF920F931F93E4
:1008E000CF93DF93EC017B018A01BA010E9450048F
:1008F000811104C0CE010E94240407C01D830C8313
:10090000B701888199810E940B0BCE01DF91CF91B5
:100910001F910F91FF90EF900895FC0111821082BA
:1009200013821282158214826115710559F0FB0140
:1009300001900020E9F7AF0141505109461B570BC8
:100940000C946C040895CF93DF93EC01611571054D
:1009500061F0FB0101900020E9F7AF01415051091E
:10096000461B570B0E946C0402C00E942404CE0157
:10097000DF91CF910895EF92FF920F931F93CF9342
:10098000DF93EC017B010C811D816115710511F470
:1009900080E016C04115510591F0040F151FB801F4
:1009A0000E9450048823A1F3288139818C819D8184
:1009B000B701820F931F0E940B0B1D830C8381E0F4
:1009C000DF91CF911F910F91FF90EF900895CF93FA
:1009D000DF9300D0CDB7DEB769831A8241E050E0E3
:1009E000BE016F5F7F4F0E94BB040F900F90DF919D
:1009F000CF91089520913A0230913B022817390790
:100A0000B9F49091F8018091F901981789F0E0917B
:100A1000F801F0E0E650FE4F80812091F80130E0CF
:100A20002F5F3F4F2F7333272093F80190E00895F5
:100A30008FEF9FEF089520913A0230913B022817E3
:100A4000390781F49091F8018091F901981751F0DC
:100A5000E091F801F0E0E650FE4F8081992787FD94
:100A6000909508958FEF9FEF089520913A0230916D
:100A70003B022817390771F48091F9012091F801A0
:100A800090E0805C9F4F821B910960E470E00E94BF
:100A9000C108089580E090E0089520913A023091D5
:100AA0003B022817390739F48FB7F8941092F901EF
:100AB0001092F8018FBF0895DC015196ED91FC91E1
:100AC0005297208150968C9180958223808308953F
:100AD00020E001972FEF8F3F9207D9F708952091DB
:100AE0003A0230913B022817390789F0FC01238D27
:100AF0002E7F238F2FB7F8941092F9011092F801EE
:100B000090933B0280933A022FBF81E0089580E0EA
:100B10000895EF92FF920F931F93CF93DF93EC0111
:100B20008B8DEE85FF859D8581FF04C080818923A3
:100B300029F445C08081892309F041C08B899C89B3
:100B40000E94680508E010E0EE24E394F12C8D8902
:100B50009E890E946805EE85FF8580819D85892399
:100B600011F0FE2803C08E2D8095F822EE0C015066
:100B7000110969F78F89988D0E9468058B8D81FD19
:100B8000F0948091F9012091F80190E001968F7323
:100B9000992730E08217930779F0E091F901F0E0AE
:100BA000E650FE4FF0828091F90190E001968F733C
:100BB00099278093F90103C08B8D81608B8FDF9122
:100BC000CF911F910F91FF90EF900895611102C096
:100BD0000C945C05DC015196ED91FC9152972081BB
:100BE00050968C91282B20830895DF92EF92FF92EC
:100BF0000F931F93CF93DF93EC01E62E898D9A8D8F
:100C0000892B39F481E090E09B838A8380E090E037
:100C100049C0DFB6F8946B8D66956170CE010E9475
:100C2000E605898D9A8D05960E9468058B8D08E0F2
:100C300010E0FF24F39481FF17C08F2D8E2121F047
:100C4000CE010E945C0504C061E0CE010E94E60571
:100C5000898D9A8D0E946805FF0C0150110969F772
:100C6000CE010E945C0517C08F2D8E2129F061E016
:100C7000CE010E94E60503C0CE010E945C05898D6D
:100C80009A8D0E946805FF0C0150110969F761E017
:100C9000CE010E94E605DFBE898D9A8D0E9468050F
:100CA00081E090E0DF91CF911F910F91FF90EF9045
:100CB000DF90089580913A0290913B02009711F0E5
:100CC0000C94890508951F920F920FB60F9211246C
:100CD0002F933F934F935F936F937F938F939F9344
:100CE000AF93BF93EF93FF930E945A06FF91EF914A
:100CF000BF91AF919F918F917F916F915F914F9134
:100D00003F912F910F900FBE0F901F9018951F923B
:100D10000F920FB60F9211242F933F934F935F932F
:100D20006F937F938F939F93AF93BF93EF93FF93B3
:100D30000E945A06FF91EF91BF91AF919F918F91C1
:100D40007F916F915F914F913F912F910F900FBEC7
:100D50000F901F9018951F920F920FB60F921124AB
:100D60002F933F934F935F936F937F938F939F93B3
:100D7000AF93BF93EF93FF930E945A06FF91EF91B9
:100D8000BF91AF919F918F917F916F915F914F91A3
:100D90003F912F910F900FBE0F901F9018951F93AA
:100DA000CF93DF93EC01162F61E0812F0E94520850
:100DB0006B8D6695617081E06827812F0E948B089A
:100DC000812F90E0FC01E85EFE4FE491E88BFC018E
:100DD000E45DFE4FE491F0E0EE0FFF1FE65BFE4F97
:100DE000859194919A8B898BDF91CF911F91089572
:100DF0001F93CF93DF93EC01162F60E0812F0E94A9
:100E000052088B8D81FD04C061E0812F0E948B0808
:100E10001C87812F90E0FC01E85EFE4FE491ED8796
:100E2000FC01E45DFE4FE491F0E0EE0FFF1FE05C9B
:100E3000FE4F859194919F878E87DF91CF911F916F
:100E40000895FF920F931F93CF93DF93EC01F62E3B
:100E5000522F1B821A8208EE13E020E030E00C8350
:100E60001D832E833F838BE191E0998388831C8AC5
:100E70001B8A1E8A1D8A188E1F8A1A8E198E8B8DC8
:100E80008E7F50FB81F98B8F642FCE010E94CF069D
:100E90006F2DCE01DF91CF911F910F91FF900C9498
:100EA000F8060F931F93CF93DF93EC011A8E198EE0
:100EB000188E1F8A1E8A1D8AA8E6B0E080E090E0A6
:100EC000FD01059115912591349104171507260709
:100ED000370709F031C02CE0289FF001299FF00D61
:100EE0001124E459FF4F259134913C8B2B8B2CE03E
:100EF000289FF001299FF00D1124E259FF4F259101
:100F000034913E8B2D8B2CE0289FF001299FF00D12
:100F10001124E059FF4F25913491388F2F8B2CE00D
:100F2000289FF001299FF00D1124EE58FF4F859165
:100F300094919A8F898F08C001961C968D309105E7
:100F400009F0BECF1C8A1B8A8F89988D892B09F4E2
:100F500043C08C858631E0F520916800883050F0E0
:100F600091E08E3008F490E081E001C0880F9A95FE
:100F7000EAF701C084E0822B809368002C8528303A
:100F800038F02E3040F0263148F0E0E0F0E008C0C4
:100F9000EDE6F0E005C0EBE6F0E002C0ECE6F0E0E4
:100FA0003081283030F481E001C0880F2A95EAF7BB
:100FB0000DC0822F90E02E3010F4089701C00E97DC
:100FC00091E001C0990F8A95EAF7892F832B8083DE
:100FD000898D9A8D0E946805CE01DF91CF911F9176
:100FE0000F910C946F05FC014485463150F5483053
:100FF00028F04E3030F4EBE6F0E005C0EDE6F0E02E
:1010000002C0ECE6F0E05081483040F481E090E02E
:10101000042E01C0880F0A94EAF710C0242F30E094
:101020004E3018F42850310902C02E50310981E0A9
:1010300090E0022E01C0880F0A94EAF7809585237C
:10104000808308952BE131E0FC01318320830C94EF
:10105000F307833081F028F4813099F08230A1F0D9
:1010600008958730A9F08830B9F08430D1F48091A8
:1010700080008F7D03C0809180008F7780938000F7
:10108000089584B58F7702C084B58F7D84BD08959F
:101090008091B0008F7703C08091B0008F7D8093E6
:1010A000B0000895CF93DF9390E0FC01E85EFE4F1F
:1010B0002491FC01E45DFE4F8491882349F190E086
:1010C000880F991FFC01EC5AFE4FA591B491865BE5
:1010D0009E4FFC01C591D4919FB7611108C0F8944F
:1010E0008C91209582238C93888182230AC0623060
:1010F00051F4F8948C91322F309583238C9388810E
:10110000822B888304C0F8948C91822B8C939FBF90
:10111000DF91CF9108950F931F93CF93DF931F9289
:10112000CDB7DEB7282F30E0F901EC5FFE4F849198
:10113000F901E85EFE4F1491F901E45DFE4F049160
:101140000023C9F0882321F069830E94290869815E
:10115000E02FF0E0EE0FFF1FE65BFE4FA591B4918C
:101160009FB7F8948C91611103C01095812301C041
:10117000812B8C939FBF0F90DF91CF911F910F9187
:10118000089597FB072E16F4009407D077FD09D039
:101190000E94F70807FC05D03EF4909581959F4F7B
:1011A0000895709561957F4F0895A1E21A2EAA1BAC
:1011B000BB1BFD010DC0AA1FBB1FEE1FFF1FA21707
:1011C000B307E407F50720F0A21BB30BE40BF50B04
:1011D000661F771F881F991F1A9469F7609570958D
:1011E000809590959B01AC01BD01CF010895AA1B8C
:1011F000BB1B51E107C0AA1FBB1FA617B70710F002
:10120000A61BB70B881F991F5A95A9F78095909533
:10121000BC01CD010895EE0FFF1F0590F491E02D64
:101220000994CF93DF938230910510F482E090E02F
:10123000E0913E02F0913F0220E030E0A0E0B0E01B
:10124000309739F14081518148175907B8F0481754
:10125000590771F482819381109729F013969C931A
:101260008E9312972CC090933F0280933E0227C02A
:101270002115310531F04217530718F0A901DB01A0
:1012800001C0EF019A01BD01DF010280F381E02D71
:10129000D7CF21153105F9F0281B390B2430310542
:1012A00080F48A819B816115710521F0FB01938394
:1012B000828304C090933F0280933E02FE013296E7
:1012C00044C0FE01E20FF31F819391932250310934
:1012D000398328833AC020913C0230913D02232B70
:1012E00041F4209102013091030130933D0220939B
:1012F0003C0220910001309101012115310541F49A
:101300002DB73EB74091040150910501241B350BC8
:10131000E0913C02F0913D02E217F307A0F42E1B8E
:101320003F0B2817390778F0AC014E5F5F4F241749
:10133000350748F04E0F5F1F50933D0240933C022B
:101340008193919302C0E0E0F0E0CF01DF91CF9173
:101350000895CF93DF93009709F487C0FC0132977B
:1013600013821282C0913E02D0913F02209781F4F5
:1013700020813181280F391F80913C0290913D02DC
:101380008217930779F5F0933D02E0933C026DC01C
:10139000DE0120E030E0AE17BF0750F412964D9109
:1013A0005C9113979D014115510509F1DA01F3CFC5
:1013B000B383A28340815181840F951F8A179B07B5
:1013C00071F48D919C911197840F951F02969183D2
:1013D000808312968D919C9113979383828321151C
:1013E000310529F4F0933F02E0933E023EC0D9015B
:1013F0001396FC93EE9312974D915D91A40FB51F38
:10140000EA17FB0779F480819181840F951F02967A
:10141000D90111969C938E938281938113969C930C
:101420008E931297E0E0F0E08A819B81009719F09B
:10143000FE01EC01F9CFCE01029628813981820F9D
:10144000931F20913C0230913D022817390769F41F
:10145000309729F410923F0210923E0202C013828C
:101460001282D0933D02C0933C02DF91CF91089548
:10147000A0E0B0E0EEE3FAE00C94160BEC01CB0137
:10148000209719F40E941109B8C0FE01E60FF71F5A
:101490009E0122503109E217F30708F4ACC0D901CC
:1014A0000D911C91119706171707B8F0053011051B
:1014B00008F49FC0A801445051094617570708F483
:1014C00098C002501109061B170B019311936D93DD
:1014D0007C93CF010E94A9098CC05B01A01AB10ABC
:1014E0004E01800E911EA0913E02B0913F02612CF0
:1014F000712C60E070E0109709F449C0A815B90597
:10150000C9F5ED90FC901197670142E0C40ED11C23
:10151000CA14DB0478F147018A189B08640142E091
:10152000C40ED11C1296BC9012971396AC91B5E0E4
:10153000CB16D10440F0B282A38391828082D9017C
:101540008D939C9309C00E5F1F4F0E0D1F1DF90157
:1015500011830083EB2DFA2F6115710531F0DB014A
:101560001396FC93EE93129744C0F0933F02E093DE
:101570003E023FC06D917C9111976616770608F484
:101580003B01BD0112960D90BC91A02DB4CF60918E
:101590003C0270913D0268157905E9F468167906F8
:1015A000D0F440910001509101014115510541F4E1
:1015B0004DB75EB76091040170910501461B570B52
:1015C000E417F507C0F4F0933D02E0933C02F90103
:1015D000918380830EC00E9411097C01009759F00D
:1015E000A801BE010E94020BCE010E94A909C701F9
:1015F00004C0CE0102C080E090E0CDB7DEB7EEE0DF
:101600000C94320BFB01DC0102C001900D924150A1
:101610005040D8F70895FB01DC0101900D920020A5
:10162000E1F708952F923F924F925F926F927F92CF
:101630008F929F92AF92BF92CF92DF92EF92FF92E2
:101640000F931F93CF93DF93CDB7DEB7CA1BDB0B8E
:101650000FB6F894DEBF0FBECDBF09942A88398833
:1016600048885F846E847D848C849B84AA84B9843A
:10167000C884DF80EE80FD800C811B81AA81B98146
:10168000CE0FD11D0FB6F894DEBF0FBECDBFED015A
:10169000089511E0C2E6D1E004C0FE010E940D09E8
:0C16A0002296C436D107C9F7F894FFCF9A
:1016AC0000004002800000000000007D02E903FD04
:1016BC000118020A025B0200000000F505E903357F
:0816CC0005FA041B054D0500A1
:00000001FF
